:1000000018C03CC03BC03AC09BC538C037C036C0E2
:1000100035C034C033C032C031C030C02FC001023F
:100020000408102001010101010100380037150802
:100030005A0811241FBECFE5D2E0DEBFCDBF14E0C9
:10004000A0E6B0E0E4E6F1E102C005900D92AE3723
:10005000B107D9F724E0AEE7B4E001C01D92AC3A95
:10006000B207E1F710E0C2E3D0E003C02297FE013F
:100070004CD8CE32D107D1F771D672C8C1CFDC01CE
:1000800012968D919C911397DC01ED91FC91028069
:10009000F381E02D099581E090E00895CF93DF93FF
:1000A00066E671E084EA94E09FD7C8E0D0E06C2F68
:1000B00085E894E0E7D485E894E011D5811121C06A
:1000C0006BE771E084EA94E08CD64AE050E06C2F54
:1000D00084EA94E06BD767E971E084EA94E081D622
:1000E00040E150E06C2F84EA94E060D762EE72E069
:1000F00084EA94E079D768EE73E080E090E08BD5F5
:10010000DC2FCF5FC83799F68D2FDF91CF910895FF
:10011000FC01680F791F80E0E617F70739F0A1911D
:10012000A827B0E0AA59BF4F8C91F6CF08956BE194
:1001300084EA94E0A4DF6CE971E084EA94E051D6AB
:100140006BE184EA94E09BDF60EA71E084EA94E08A
:1001500048C661E082E09CD58AEA94E09093A704C7
:100160008093A604E091AA04F091AB040190F08181
:10017000E02D099585E894E084D460E082E0BFD565
:100180006AE070E080E090E046D561E082E0B7D5BB
:1001900068EE73E080E090E03ED5809183048111A9
:1001A00004C07CDF80938304F3CFC1DF63EA71E096
:1001B00084EA94E019D76EEB71E084EA94E014D7F6
:1001C00069ED71E084EA94E00FC7CF93DF93CDB778
:1001D000DEB760970FB6F894DEBF0FBECDBFCE017D
:1001E000019697D78F3F9105C1F0B8F080917F04B9
:1001F000882399F069E374E084EA94E0F5D667E037
:1002000072E084EA94E0EDD5CE01019682D740E019
:1002100050E0682F84EA94E0EFD6CE01019679D7BA
:1002200060960FB6F894DEBF0FBECDBFDF91CF91C1
:100230000895AF92BF92CF92DF92EF92FF920F9309
:100240001F93CF93DF93CDB7DEB7809180048823CF
:1002500009F44CC31092800469E374E084EA94E0EA
:10026000C3D680917E04833509F499C054F4843454
:1002700009F41AC1863409F422C2813409F011C389
:100280000EC0843609F410C11CF4813641F009C354
:10029000863609F414C2833709F481C002C3CDB68F
:1002A000DEB66FE372E084EA94E09BD540E050E074
:1002B00069EE84EA94E07AD66DE572E084EA94E02F
:1002C00093D66091830485E894E0DCD369EE85E8F9
:1002D00094E0DED385E894E002D441E060918304A9
:1002E00085E894E0FED390E09093820480938104AB
:1002F00068E672E084EA94E074D5609181047091BC
:1003000082044AE050E084EA94E03DD669E374E078
:1003100084EA94E069D680918104909182042DB79B
:100320003EB7281B390B0FB6F8943EBF0FBE2DBF4A
:100330000DB71EB70F5F1F4F780180918104909118
:1003400082049701201B310B281739073CF485E8FC
:1003500094E0DCD3F70181937F01EFCFF8011081A6
:100360001631A1F46EE872E084EA94E03AD540E0F8
:1003700050E069EE84EA94E019D661EA72E084EA1A
:1003800094E02FD540E050E066E190C161EB72E06F
:1003900084EA94E026D540E050E069EE7FC0CDB617
:1003A000DEB66FE372E084EA94E01BD540E050E0F3
:1003B00061EE84EA94E0FAD569ED72E084EA94E0B3
:1003C00013D66091830485E894E05CD361EE85E800
:1003D00094E05ED385E894E082D341E060918304A9
:1003E00085E894E07ED390E090938204809381042A
:1003F00068E672E084EA94E0F4D46091810470913C
:1004000082044AE050E084EA94E0BDD569E374E0F8
:1004100084EA94E0E9D580918104909182042DB71B
:100420003EB7281B390B0FB6F8943EBF0FBE2DBF49
:100430000DB71EB70F5F1F4F780180918104909117
:1004400082049701201B310B281739073CF485E8FB
:1004500094E05CD3F70181937F01EFCFF801108125
:100460001E31A1F46EE872E084EA94E0BAD440E070
:1004700050E061EE84EA94E099D561EA72E084EAA2
:1004800094E0AFD440E050E06EE110C161EB72E067
:1004900084EA94E0A6D440E050E061EE84EA94E07F
:1004A00085D56AEC72E0E8C0CDB6DEB664EE72E0E7
:1004B00084EA94E096D440E050E06BEF84EA94E064
:1004C00075D566EF72E084EA94E08ED561E073E062
:1004D00084EA94E086D4B12C80917F04811103C01A
:1004E00074DEB82EF9CF69E374E084EA94E07CD539
:1004F00067E373E084EA94E074D440E050E06B2D4D
:1005000084EA94E079D569E374E084EA94E06CD5F8
:100510006FE372E084EA94E064D440E050E06BEF73
:1005200084EA94E043D566EF72E084EA94E05CD517
:1005300062E673E084EA94E054D440E050E06B2D2E
:1005400084EA94E033D561E873E084EA94E049D426
:1005500040E050E06B2D84EA94E028D562EE72E032
:1005600084EA94E041D56091830485E894E08AD2DE
:100570006BEF85E894E08CD285E894E0B0D260918E
:10058000830485E894E07ED26B2D85E894E080D2E8
:1005900085E894E0A4D210927F0442E06091830445
:1005A00085E894E09ED290E0909382048093810449
:1005B00068E672E084EA94E014D46091810470915A
:1005C00082044AE050E084EA94E0DDD469E374E018
:1005D00084EA94E009D520918104309182048DB79A
:1005E0009EB7821B930B0FB6F8949EBF0FBE8DBFB4
:1005F0000DB71EB70F5F1F4F780120918104309116
:100600008204A701401B510B421753073CF485E8B5
:1006100094E07CD2F70181937F01EFCFF801F08065
:10062000F4E0FF1230C06EE872E084EA94E0D9D3BF
:1006300040E050E06BEF84EA94E0B8D461EA72E005
:1006400084EA94E0CED340E050E064E084EA94E0B1
:10065000D3D4F80111818B2D809518132AC063E83B
:1006600073E084EA94E0BDD340E050E06B2D84EA6F
:1006700094E09CD461EA72E084EA94E0B2D340E072
:1006800050E0612F13C061EB72E084EA94E0A9D3DB
:1006900040E050E06BEF84EA94E088D46AEC72E0CA
:1006A00084EA94E09ED340E050E06F2D84EA94E029
:1006B000A3D40FB6F894DEBE0FBECDBE03C1ADB657
:1006C000BEB664EE72E084EA94E08BD340E050E082
:1006D0006AED84EA94E06AD466E973E084EA94E01F
:1006E00083D46091830485E894E0CCD16AED85E8F9
:1006F00094E0CED185E894E0F2D144E060918304A7
:1007000085E894E0EED1C82ED12CD0928204C0921C
:1007100081042DB73EB72C193D090FB6F8943EBFA2
:100720000FBE2DBF0DB71EB70F5F1F4F7801809111
:100730008104909182049701201B310B28173907FF
:100740003CF485E894E0E2D1F70181937F01EFCF9B
:10075000F801E18082819081953209F085C0F12C09
:10076000FE2CEE24E80EF11C6EE872E084EA94E0C0
:1007700038D340E050E06AED84EA94E017D461EAAF
:1007800072E084EA94E02DD340E050E0F80160810B
:1007900084EA94E031D461EA73E084EA94E021D3FE
:1007A0004AE050E0B70184EA94E006D461E873E0DF
:1007B00084EA94E016D34AE050E0B70184EA94E07A
:1007C000FBD368EB73E084EA94E00BD340E050E0A5
:1007D000F801618184EA94E0E9D365EC73E084EA8E
:1007E00094E0FFD240E050E0F801628184EA94E0B6
:1007F000DDD36DEC73E084EA94E0F3D240E050E0A6
:10080000F801638184EA94E0F7D3B601C80180DC83
:10081000182F811113C065ED73E084EA94E0E4D3EE
:100820006FEE73E084EA94E0DFD340E050E060E0F4
:1008300084EA94E0E1D365ED73E012C067E074E010
:1008400084EA94E0D1D363E274E084EA94E0CCD308
:1008500040E050E0612F84EA94E0CED367E074E09A
:1008600084EA94E0C1D317C061EB72E084EA94E0BB
:10087000B8D240E050E06AED84EA94E097D36AECA5
:1008800072E084EA94E0ADD240E050E0F80160818B
:1008900084EA94E0B1D30FB6F894BEBE0FBEADBEED
:1008A00011C06AE374E084EA94E09BD240E050E037
:1008B00060917E0484EA94E05ED36EE474E084EA9E
:1008C00094E092D369E374E084EA94E08DD369ED17
:1008D00071E084EA94E0DF91CF911F910F91FF9036
:1008E000EF90DF90CF90BF90AF907EC3DF91CF911C
:1008F0001F910F91FF90EF90DF90CF90BF90AF903E
:100900000895C09AC29ABA9AB89A8FEF8FB98AE2BC
:100910008DB980EF8EB908958091840408958EB9C1
:100920008BE29BE19A95F1F700C08DB9B29BFECFA7
:1009300096E19A95F1F78DB9769BF3CF8BE18A9585
:10094000F1F700C08FB19FEF9FB9B89A0895C29A8E
:10095000C29BFECF8BE18A95F1F700C0C09886E17B
:100960008A95F1F7C298C09A81E00895AF92BF923C
:10097000CF92DF92EF92FF920F931F93CF93DF936B
:10098000EC01C62E80918404816080938404988158
:1009900090FD03C0826080938404D9DF882309F42A
:1009A00054C0FC2C8E01BB24BA94AA24A394209199
:1009B00084042370C8010196222371F1C298D82EB5
:1009C000E92EF80180818FB980EFA9DFB8988EEF0A
:1009D000A6DF9091840480FF0BC0892F817090FF67
:1009E00005C081E08093840480E02FC092E00DC0B8
:1009F000892F8570843061F4888181608883A0921A
:100A00008404A5DF811118C09AE0909384041DC06E
:100A10009E7F9093840413C0B898D82EE92E80EF5F
:100A20007EDFF8018083F1E0FF1202C0BFB801C091
:100A30001FB88EEF74DF03C0FC2CDC2EED2EFA9471
:100A400019F00D2D1E2DB3CF81E0DF91CF911F91B5
:100A50000F91FF90EF90DF90CF90BF90AF900895EF
:100A60001092840483CFC098C29AB29BFECF86E1D5
:100A70008A95F1F7C09A8BE18A95F1F700C081E081
:100A800008953FCF10928804660F609389040895FB
:100A9000E0918804E23150F4EF5FE0938804F0E0E5
:100AA000E757FB4F608381E090E0089580E090E09D
:100AB0000895CF93C62F609188046F5F89E894E012
:100AC000CFDF10928804882329F0CC2329F0CBDFD4
:100AD000811102C0CF9120CF80E0CF91089561E0D5
:100AE000E8CF1092870440938604660F616060939C
:100AF000890461E0640F89E894E0B2DF882319F08B
:100B0000B2DF811101C008CF80E00895E091870431
:100B1000EF5FE0938704F0E0E757FB4F808190E0C0
:100B2000089583B7887F83BF8AB58C7F81608ABD33
:100B300083B7877F83BF83B7887F836083BF089530
:100B400078941F920F920FB60F9211242F933F9318
:100B50008F939F93AF93BF9380919C0490919D043A
:100B6000A0919E04B0919F0430919B042CE7230F29
:100B70002D3728F02FEF230F0196A11DB11D2093D3
:100B80009B0480939C0490939D04A0939E04B09337
:100B90009F048091A0049091A104A091A204B0911F
:100BA000A3040196A11DB11D8093A0049093A104FC
:100BB000A093A204B093A304BF91AF919F918F9192
:100BC0003F912F910F900FBE0F901F9018953FB738
:100BD000F8948091A0049091A104A091A204B091F6
:100BE000A3042FB508B602FE05C02F3F19F00196E9
:100BF000A11DB11D3FBF6627782F892F9A2F620F45
:100C0000711D811D911D42E0660F771F881F991F7E
:100C10004A95D1F70895CF92DF92EF92FF92CF934A
:100C2000DF936B017C01D3DFEB01C114D104E1043C
:100C3000F10471F0CCDF6C1B7D0B683E7340A8F3B0
:100C400081E0C81AD108E108F108C851DC4FEDCFA6
:100C5000DF91CF91FF90EF90DF90CF90089578943F
:100C600080B7806880BF80B7806480BF8CB58064A7
:100C70008CBD8FEF8DBD80B7807F876080BF89B7C7
:100C8000846089BF4EDF86B1876086B9379A089540
:100C9000CF93DF9390E0FC01E25EFF4F2491FC01D3
:100CA000EC5DFF4F8491882339F190E0FC01E45D15
:100CB000FF4FA491B0E0FC01E65DFF4F849161110C
:100CC00006C09FB7F8948C912095822313C06230A0
:100CD00069F4C82FD0E09FB7F8948C91322F3095EB
:100CE00083238C938881822B888305C09FB7F894D7
:100CF0008C91822B8C939FBFDF91CF910895A82F69
:100D0000B0E0FD01E25EFF4F9491FD01EC5DFF4F0D
:100D1000E491EE2311F1811103C08AB58F7304C0F1
:100D2000813021F48AB58F7C8ABD05C0843019F4E6
:100D30008CB58F7C8CBDF0E0E65DFF4FA491B0E0F8
:100D40002FB7611105C0F8948C919095892303C049
:100D5000F8948C91892B8C932FBF089580DFF9D95B
:100D600068DAFECF0F931F93CF93DF93EC018B01D3
:100D7000F80161918F01662341F0E881F9810190CA
:100D8000F081E02DCE010995F3CFDF91CF911F9136
:100D90000F910895EF92FF920F931F93CF93DF93DC
:100DA0007C018A01EB01060F171FC017D10751F014
:100DB0006991D701ED91FC910190F081E02DC7017F
:100DC0000995F3CFDF91CF911F910F91FF90EF9095
:100DD0000895DC01ED91FC910190F081E02D642FEC
:100DE0000994DC01ED91FC910280F381E02D0994DE
:100DF0004F925F926F927F928F929F92AF92BF922B
:100E0000CF92DF92EF92FF920F931F93CF93DF93D6
:100E1000CDB7DEB7A0970FB6F894DEBF0FBECDBF3B
:100E20005C014115510561057105D9F440E350E0BD
:100E300060E070E0A0960FB6F894DEBF0FBECDBFA5
:100E4000DF91CF911F910F91FF90EF90DF90CF90A6
:100E5000BF90AF909F908F907F906F905F904F90DA
:100E6000B8CF8E010F5F1F4FC12CD12C76014801E6
:100E7000422E512C612C712C8FEFC81AD80AE80A27
:100E8000F80ACB01BA01A30192011BD1CA01F801F2
:100E900061938F01A901BC014115510561057105DF
:100EA00059F7F1E0CF1AD108E108F108F401EC0D8F
:100EB000FD1D80818A3010F440E301C047E3480FF4
:100EC000552747FD5095652F752FC50182DF81E0BD
:100ED000C81AD108E108F108EFEFCE16DE06EE06DB
:100EE000FE0621F7A0960FB6F894DEBF0FBECDBF69
:100EF000DF91CF911F910F91FF90EF90DF90CF90F6
:100F0000BF90AF909F908F907F906F905F904F9029
:100F10000895CF92DF92EF92FF92CF93DF93EC018F
:100F20006A017B012115310539F4DF91CF91FF90E2
:100F3000EF90DF90CF904DCF2A30310591F477FFBD
:100F40000FC020E030E04DE250E060E070E0E1DF13
:100F5000F094E094D094C094C11CD11CE11CF11C0D
:100F60002AE0B701A601CE01DF91CF91FF90EF906B
:100F7000DF90CF903DCF9A01462F552747FD5095E2
:100F8000652F752FC6CF9A01AB01662757FD609577
:100F9000762FBFCF2115310541F4DC01ED91FC9195
:100FA0000190F081E02D642F099422CF9A01462F01
:100FB00050E060E070E0EECF9A01AB0160E070E0DD
:100FC000E9CFCF93DF93EC014DE050E060E070E0BB
:100FD00000DF4AE050E060E070E0CE01FADE82E03F
:100FE00090E0DF91CF910895CF93DF93EC01F9DE8C
:100FF000CE01DF91CF91E5CFCF93DF93EC019A0142
:10100000462F50E060E070E0C5DFCE01DF91CF9168
:10101000D8CF0895089580E090E008958FEF9FEF76
:1010200008958FEF9FEF08950895E8EAF4E080E6D1
:1010300094E09183808388E694E09093A504809364
:10104000A404F093A704E093A6040895BA9AC29A60
:101050000895862F880F8E7162956F70606122E00F
:1010600095E056E1F89407C0000000000000000081
:10107000000000000000879510F0C29802C0C29ADC
:101080000000579510F40000000036E04AE54A954C
:10109000F1F700003A95D1F70000000000009A95A2
:1010A00019F700002A9521F095E0862F5BE1E3CF48
:1010B000789408958AE794E09093AB048093AA040F
:1010C0000895A1E21A2EAA1BBB1BFD010DC0AA1F89
:1010D000BB1FEE1FFF1FA217B307E407F50720F0A1
:1010E000A21BB30BE40BF50B661F771F881F991F1C
:1010F0001A9469F760957095809590959B01AC0165
:10110000BD01CF010895EE0FFF1F0590F491E02D72
:101110000994FC0188279927E89421912032E9F36A
:10112000293010F02E30C8F32B3239F02D3231F443
:10113000689403C00BD0820F911D219120532A3057
:10114000C8F31EF4909581959F4F0895BC01880FB8
:10115000991F880F991F860F971F880F991F089551
:04116000F894FFCF31
:101164000000AC048000009CA438D44870EC34A87F
:10117400900CE07C44D868F4CC50BC2018845CC04B
:10118400F86488142CB0D04C74E80498A03CE4783B
:1011940040DC30AC9408B8241C806CF0C8548C102B
:1011A40028B458C4FC603CA09804E8744CD008945B
:1011B400AC30DC4078E454C8F06C801C24B860FC8B
:1011C400C458B428108CEC7048D438A49C00D8447B
:1011D4007CE00C90A834841820BC50CCF468B02C6B
:1011E400148864F8C05C78E4DC40AC3008944CD0DB
:1011F400E87498043CA0108CB428C45860FC24B84B
:10120400801CF06C54C8A8340C907CE0D8449C003A
:1012140038A448D4EC70C05C64F81488B02CF4682A
:1012240050CC20BC841844D8E07C900C34A870ECDA
:10123400D448A438009C2CB08814F8645CC018848A
:10124400BC20CC5068F4940830AC40DCE478A03C7A
:10125400049874E8D04CFC6058C428B48C10C8546A
:101264006CF01C80B8245363616E6E696E6720490C
:10127400324320627573202E2E2E00466F756E64E5
:1012840020415474696E7938352061742061646436
:10129400726573733A200020283078005B324A006C
:1012A4005B48004E696365626F7473204932432062
:1012B400436F6D6D616E64732054657374003D3DBE
:1012C4003D3D3D3D3D3D3D3D3D3D3D3D3D3D3D3D4A
:1012D4003D3D3D3D3D3D3D3D00506C6561736520A8
:1012E40074797065206120636F6D6D616E64202870
:1012F4002761272C202773272C20276427206F722F
:1013040020276627293A005741524E494E4721204B
:10131400427974652076616C756573206D7573749C
:10132400206265203020746F20323535202D3E2018
:101334005472756E636174696E6720746F20004522
:10134400535038323636202D2053656E64696E67EB
:10135400204F70636F6465203E3E3E200028535446
:10136400445042315F3129004553503832363620DB
:101374002D203FEFBFBD3FEFBFBD3FEFBFBD2052AC
:101384005820424C4F434B53495A453A2000455349
:101394005038323636202D20436F6D6D616E6420D7
:1013A4000020706172736564204F4B203C3C3C20EC
:1013B4000045535038323636202D204572726F72F4
:1013C4002070617273696E67200020636F6D6D61B8
:1013D4006E6421203C3C3C2000285354445042314C
:1013E4005F30290045535038323636202D204F7057
:1013F400636F64652000285354414E4150423329A1
:1014040000506C6561736520656E7465722061209F
:1014140076616C75652066726F6D203020746F2064
:1014240032353520666F72207468697320636F6D7E
:101434006D616E643A2000436F6D6D616E6420537C
:1014440054414E41504233204F706572616E6420A6
:1014540056616C75652028646563696D616C293A11
:10146400200045535038323636202D2053656E64A3
:10147400696E67204F706572616E64203E3E3E2047
:1014840000280045535038323636202D204F7065E1
:1014940072616E642000285245414441444332291C
:1014A4000045535038323636202D20416E616C6F22
:1014B4006720446174613D0029203E3E3E207C202B
:1014C4004D53423D00207C204C53423D00207C2063
:1014D4004352433D002A2A2A2A2A2A2A2A2A2A2A25
:1014E4002A2A2A2A2A2A2A2A2A2A2A2A2A0A002AA2
:1014F4002A2A2A2A2A20435243204F4B21202A2ACF
:101504002A2A2A2A2A0A00232323232323232323C0
:101514002323232323232323232323232323232397
:10152400230A0023232323232043524320455252DA
:101534004F522023232323230A00455350383236A5
:1015440036202D20436F6D6D616E642027002720A7
:10155400756E6B6E6F776E202E2E2E0000000000CD
:1015640009080A08000000003F00B206CA060B087A
:0E15740011080E0814080000000026082908BF
:00000001FF
