:1000000015C02FC02EC02DC0E9C12BC02AC029C0E9
:1000100028C027C026C025C024C0DFC0FBC0010205
:1000200004081020010101010101003811241FBE44
:10003000CFE5D2E0DEBFCDBF10E0A0E6B0E0E6E95C
:10004000F5E002C005900D92A036B107D9F720E087
:10005000A0E6B0E001C01D92AE39B207E1F795D23B
:1000600098C2CECFCF93DF9390E0909361008093BE
:100070006000C2E6D0E080916000909161009E0136
:1000800022563040281739072CF480E990E07BD1C4
:100090008993F1CFDF91CF910895CF93DF93809132
:1000A0006600882319F0C2E6D0E019C08091620092
:1000B000C82FC095813E51F018F48A3D39F01FC019
:1000C000893E11F08B3FD9F461E001C060E081E02E
:1000D0002DD26C2F80E990E0DF91CF9152C18091B9
:1000E0006000909161009E01225630402817390728
:1000F00034F46991609580E990E043D1F0CFDF91CD
:10010000CF9108956EE280E990E039D162E370E02A
:1001100080E990E039D16DE470E080E990E039C188
:1001200061E081E003D264EF71E080E090E0C1D152
:1001300060E081E0FBD164EF71E080E090E0B9C164
:10014000809166008111ECDF29C110927B00109232
:100150007C0010927A001092680010926900109250
:10016000670080938F0087B3856087BBC29AC09A6F
:10017000B89888EA8DB980EF8EB90895909167009C
:100180009031E1F3E0916900F0E0E659FF4F8083A0
:10019000809169008F5F8F70809369008091670004
:1001A0008F5F80936700089580917A008823E1F340
:1001B000E0917B00F0E0E358FF4F808190917B005D
:1001C0009F5F9F7090937B0090917A0091509093E5
:1001D0007A00089580917A0008951F920F920FB6C9
:1001E0000F9211248F9310928E0010928D00B89868
:1001F000B29B02C0B09BFCCFB09902C088EF01C097
:1002000088EA8DB980EF8EB98F910F900FBE0F9055
:100210001F9018951F920F920FB60F9211242F93D3
:100220003F934F935F936F937F938F939F93AF937E
:10023000BF93EF93FF9380918D0090918E00823059
:10024000910509F459C028F4009761F0019779F1FC
:1002500085C08430910509F458C030F1059709F440
:100260005DC07CC08FB1882331F08FB186959091AD
:100270008F0089133EC0789B67C0E0919100F09198
:100280009200309739F080917A00882319F080919C
:100290007A000995E0919300F0919400309709F06D
:1002A000099581E090E052C08FB1811122C0809108
:1002B00067008823D1F0E0916800F0E0E659FF4F35
:1002C00080818FB9809168008F5F8F708093680004
:1002D0008091670081508093670082E090E0909366
:1002E0008E0080938D00B89A17C0B8981FB88EE71B
:1002F0008EB988EA8DB910C083E090E090938E00AB
:1003000080938D00B8981FB827C085E090E0909347
:100310008E0080938D00B89880E71FC080917A008E
:10032000803190F4E0917C008FB1F0E0E358FF4F12
:10033000808380917C008F5F8F7080937C008091A0
:100340007A008F5F80937A0084E090E090938E0033
:1003500080938D001FB8B89A8EE78EB9FF91EF9108
:10036000BF91AF919F918F917F916F915F914F91CD
:100370003F912F910F900FBE0F901F901895862FD1
:10038000E4CE862FFBCE10CF709392006093910045
:100390000895709394006093930008958091910064
:1003A00090919200892B51F0759B08C013DF882330
:1003B00029F0E0919100F09192000994089583B79B
:1003C000887F83BF8AB58C7F81608ABD83B7877F32
:1003D00083BF83B7887F836083BF089578941F921B
:1003E0000F920FB60F9211242F933F938F939F93E9
:1003F000AF93BF938091960090919700A091980041
:10040000B0919900309195002CE7230F2D3728F0FB
:100410002FEF230F0196A11DB11D2093950080930E
:10042000960090939700A0939800B09399008091C4
:100430009A0090919B00A0919C00B0919D00019624
:10044000A11DB11D80939A0090939B00A0939C00E6
:10045000B0939D00BF91AF919F918F913F912F914C
:100460000F900FBE0F901F9018953FB7F894809192
:100470009A0090919B00A0919C00B0919D002FB597
:1004800008B602FE05C02F3F19F00196A11DB11D4F
:100490003FBF6627782F892F9A2F620F711D811D0C
:1004A000911D42E0660F771F881F991F4A95D1F76B
:1004B0000895CF92DF92EF92FF92CF93DF936B017B
:1004C0007C01D3DFEB01C114D104E104F10471F02C
:1004D000CCDF6C1B7D0B683E7340A8F381E0C81A2B
:1004E000D108E108F108C851DC4FEDCFDF91CF9181
:1004F000FF90EF90DF90CF900895789480B7806858
:1005000080BF80B7806480BF8CB580648CBD8FEF66
:100510008DBD80B7807F876080BF89B7846089BFC9
:100520004EDF86B1876086B9379A0895A82FB0E06C
:10053000FD01E25EFF4F9491FD01EC5DFF4FE49100
:10054000EE2311F1811103C08AB58F7304C081308D
:1005500021F48AB58F7C8ABD05C0843019F48CB52E
:100560008F7C8CBDF0E0E65DFF4FA491B0E02FB72B
:10057000611105C0F8948C919095892303C0F8947B
:100580008C91892B8C932FBF0895B7DFBBDDD8DD0D
:06059000FECFF894FFCF3E
:00000001FF
