:1000000015C02FC02EC02DC051C22BC02AC029C080
:1000100028C027C026C025C024C058C174C1010211
:1000200004081020010101010101003811241FBE44
:10003000CFE5D2E0DEBFCDBF11E0A0E6B0E0E6E65E
:10004000F6E002C005900D92A036B107D9F721E085
:10005000A0E6B1E001C01D92A03AB207E1F7FDD2DF
:1000600000C3CECFCF93DF9390E090936301809352
:100070006201C4E6D1E080916201909163019E012A
:1000800024563140281739072CF482E991E0F4D145
:100090008993F1CFDF91CF9108956EE282E991E0EB
:1000A000E7D162E370E082E991E0E7D16AE670E0CF
:1000B00082E991E0E7C1FC01680F791F80E0E61753
:1000C000F70739F0A191A827B0E0A05ABF4F8C9153
:1000D000F6CF0895EF92FF920F931F93CF93DF9384
:1000E00000D000D0CDB7DEB780916801882319F029
:1000F00004E611E074C080916401182F1095813ED0
:1001000069F018F48A3D31F104C0893E29F08B3F33
:1001100069F004E611E051C061E001C060E081E0F7
:100120006DD2612F82E991E0A5D16BC0809165010C
:100130008F7E8093650163E070E084E691E0BBDF31
:10014000082F61E081E05AD2612F82E991E092D1DB
:10015000602FE8CF8091600190916101811524E0CA
:10016000920734F40196909361018093600106C078
:10017000109261011092600180E090E019821A8271
:100180001B821C82198393709A838B8363E070E0D7
:10019000CE01019690DF8C838E010F5F1F4F7E0191
:1001A00085E0E80EF11CF80161918F0182E991E090
:1001B00061D10E151F05B9F724C08091620190919D
:1001C000630198012456314028173907D4F4F80107
:1001D00061918F01609582E991E04CD1EECF8091E1
:1001E0006201909163019801245631402817390724
:1001F00044F4F80161918F01609582E991E03AD170
:10020000EECF0F900F900F900F90DF91CF911F9135
:100210000F91FF90EF90089561E081E0EFD164EFDE
:1002200071E080E090E0ADD160E081E0E7D164EF83
:1002300071E080E090E0A5C1809168018111ECCF70
:10024000089510927D0110927E0110927C0110920F
:100250006A0110926B01109269018093910187B33A
:10026000856087BBC29AC09AB89888EA8DB980EF3A
:100270008EB90895909169019031E1F3E0916B019D
:10028000F0E0E459FE4F808380916B018F5F8F70A7
:1002900080936B01809169018F5F8093690108955C
:1002A00080917C018823E1F3E0917D01F0E0E15849
:1002B000FE4F808190917D019F5F9F7090937D01A3
:1002C00090917C01915090937C0108951F920F9220
:1002D0000FB60F9211248F931092900110928F01FC
:1002E000B898B29B02C0B09BFCCFB09902C088EF17
:1002F00001C088EA8DB980EF8EB98F910F900FBE43
:100300000F901F9018951F920F920FB60F92112405
:100310002F933F934F935F936F937F938F939F930D
:10032000AF93BF93EF93FF9380918F0190919001D2
:100330008230910509F459C028F4009761F00197C3
:1003400079F185C08430910509F458C030F10597E2
:1003500009F45DC07CC08FB1882331F08FB18695E0
:100360009091910189133EC0789B67C0E091930101
:10037000F0919401309739F080917C01882319F035
:1003800080917C010995E0919501F091960130975B
:1003900009F0099581E090E052C08FB1811122C02F
:1003A000809169018823D1F0E0916A01F0E0E4597D
:1003B000FE4F80818FB980916A018F5F8F7080932B
:1003C0006A018091690181508093690182E090E027
:1003D0009093900180938F01B89A17C0B8981FB876
:1003E0008EE78EB988EA8DB910C083E090E09093D3
:1003F000900180938F01B8981FB827C085E090E0E6
:100400009093900180938F01B89880E71FC08091EE
:100410007C01803190F4E0917E018FB1F0E0E158F1
:10042000FE4F808380917E018F5F8F7080937E016D
:1004300080917C018F5F80937C0184E090E09093B9
:10044000900180938F011FB8B89A8EE78EB9FF9103
:10045000EF91BF91AF919F918F917F916F915F913C
:100460004F913F912F910F900FBE0F901F901895B5
:10047000862FE7CE862FFECE13CF70939401609324
:10048000930108957093960160939501089583B741
:10049000887F83BF8AB58C7F81608ABD83B7877F61
:1004A00083BF83B7887F836083BF089578941F924A
:1004B0000F920FB60F9211242F933F938F939F9318
:1004C000AF93BF938091980190919901A0919A0167
:1004D000B0919B01309197012CE7230F2D3728F025
:1004E0002FEF230F0196A11DB11D2093970180933B
:1004F000980190939901A0939A01B0939B018091E8
:100500009C0190919D01A0919E01B0919F01019647
:10051000A11DB11D80939C0190939D01A0939E010C
:10052000B0939F01BF91AF919F918F913F912F9178
:100530000F900FBE0F901F9018953FB7F8948091C1
:100540009C0190919D01A0919E01B0919F012FB5BA
:1005500008B602FE05C02F3F19F00196A11DB11D7E
:100560003FBF6627782F892F9A2F620F711D811D3B
:10057000911D42E0660F771F881F991F4A95D1F79A
:100580000895CF92DF92EF92FF92CF93DF936B01AA
:100590007C01D3DFEB01C114D104E104F10471F05B
:1005A000CCDF6C1B7D0B683E7340A8F381E0C81A5A
:1005B000D108E108F108C851DC4FEDCFDF91CF91B0
:1005C000FF90EF90DF90CF900895789480B7806887
:1005D00080BF80B7806480BF8CB580648CBD8FEF96
:1005E0008DBD80B7807F876080BF89B7846089BFF9
:1005F0004EDF86B1876086B9379A0895A82FB0E09C
:10060000FD01E25EFF4F9491FD01EC5DFF4FE4912F
:10061000EE2311F1811103C08AB58F7304C08130BC
:1006200021F48AB58F7C8ABD05C0843019F48CB55D
:100630008F7C8CBDF0E0E65DFF4FA491B0E02FB75A
:10064000611105C0F8948C919095892303C0F894AA
:100650008C91892B8C932FBF0895B7DF1EDDECDDC5
:06066000FECFF894FFCF6D
:10066600009CA438D44870EC34A8900CE07C44D8A4
:1006760068F4CC50BC2018845CC0F86488142CB094
:10068600D04C74E80498A03CE47840DC30AC940884
:10069600B8241C806CF0C8548C1028B458C4FC6074
:1006A6003CA09804E8744CD00894AC30DC4078E464
:1006B60054C8F06C801C24B860FCC458B428108C54
:1006C600EC7048D438A49C00D8447CE00C90A83444
:1006D600841820BC50CCF468B02C148864F8C05C34
:1006E60078E4DC40AC3008944CD0E87498043CA024
:1006F600108CB428C45860FC24B8801CF06C54C814
:10070600A8340C907CE0D8449C0038A448D4EC7003
:10071600C05C64F81488B02CF46850CC20BC8418F3
:1007260044D8E07C900C34A870ECD448A438009CE3
:100736002CB08814F8645CC01884BC20CC5068F4D3
:10074600940830AC40DCE478A03C049874E8D04CC3
:10075600FC6058C428B48C10C8546CF01C80B824B3
:00000001FF
