:1000000015C02FC02EC02DC02FC22BC02AC029C0A2
:1000100028C027C026C025C024C025C141C1010277
:1000200004081020010101010101003811241FBE44
:10003000CFE5D2E0DEBFCDBF11E0A0E6B0E0EEE854
:10004000F8E002C005900D92A436B107D9F721E07F
:10005000A4E6B1E001C01D92A23AB207E1F7DBD2FB
:1000600014C4CECFCF93DF9390E09093650180933B
:100070006401C6E6D1E080916401909165019E0122
:1000800026563140281739072CF484E991E0C1D174
:100090008993F1CFDF91CF9108956EE284E991E0E9
:1000A000B4D162E370E084E991E0B4D16AE670E033
:1000B00084E991E0B4C1FC01680F791F80E0E61784
:1000C000F70739F0A191A827B0E0AC59BF4F8C9148
:1000D000F6CF0895EF92FF920F931F93CF93DF9384
:1000E00000D000D0CDB7DEB780916A01882319F027
:1000F00006E611E03EC080916601182F1095813E02
:1001000031F1E8F48A3D09F046C0F0D260E074E0D5
:1001100086D219821A821B821C82198393709A8359
:100120008B8363E070E0CE010196C5DF8C838E0186
:100130000F5F1F4F7E0185E0E80EF11C10C0893E65
:1001400021F08B3F41F564E006C061E001C060E052
:1001500081E032D2612F84E991E059D11CC0F801CD
:1001600061918F0184E991E052D10E151F05B9F715
:1001700012C080916401909165019801265631402A
:100180002817390744F4F80161918F01609584E9DB
:1001900091E03DD1EECF0F900F900F900F90DF9137
:1001A000CF911F910F91FF90EF90089561E081E052
:1001B00003D264EF71E080E090E0C1D160E081E0C3
:1001C000FBD164EF71E080E090E0B9C180916A01F9
:1001D0008111ECDF29C110927F01109280011092F1
:1001E0007E0110926C0110926D0110926B01809350
:1001F000930187B3856087BBC29AC09AB89888EA92
:100200008DB980EF8EB9089590916B019031E1F333
:10021000E0916D01F0E0E259FE4F808380916D0125
:100220008F5F8F7080936D0180916B018F5F8093E2
:100230006B01089580917E018823E1F3E0917F01B5
:10024000F0E0EF57FE4F808190917F019F5F9F709C
:1002500090937F0190917E01915090937E0108953B
:1002600080917E0108951F920F920FB60F92112474
:100270008F931092920110929101B898B29B02C094
:10028000B09BFCCFB09902C088EF01C088EA8DB95D
:1002900080EF8EB98F910F900FBE0F901F90189521
:1002A0001F920F920FB60F9211242F933F934F93EB
:1002B0005F936F937F938F939F93AF93BF93EF93CE
:1002C000FF9380919101909192018230910509F400
:1002D00059C028F4009761F0019779F185C0843006
:1002E000910509F458C030F1059709F45DC07CC050
:1002F0008FB1882331F08FB1869590919301891346
:100300003EC0789B67C0E0919501F09196013097CF
:1003100039F080917E01882319F080917E01099542
:10032000E0919701F0919801309709F0099581E0EB
:1003300090E052C08FB1811122C080916B0188235F
:10034000D1F0E0916C01F0E0E259FE4F80818FB96D
:1003500080916C018F5F8F7080936C0180916B0135
:10036000815080936B0182E090E0909392018093A2
:100370009101B89A17C0B8981FB88EE78EB988EA6D
:100380008DB910C083E090E0909392018093910129
:10039000B8981FB827C085E090E0909392018093B1
:1003A0009101B89880E71FC080917E01803190F460
:1003B000E09180018FB1F0E0EF57FE4F8083809194
:1003C00080018F5F8F708093800180917E018F5FAD
:1003D00080937E0184E090E090939201809391015C
:1003E0001FB8B89A8EE78EB9FF91EF91BF91AF9188
:1003F0009F918F917F916F915F914F913F912F913D
:100400000F900FBE0F901F901895862FE4CE862F69
:10041000FBCE10CF70939601609395010895709371
:1004200098016093970108958091950190919601AC
:10043000892B51F0759B08C013DF882329F0E091C8
:100440009501F09196010994089583B7887F83BF41
:100450008AB58C7F81608ABD83B7877F83BF83B76E
:10046000887F836083BF089578941F920F920FB6A0
:100470000F9211242F933F938F939F93AF93BF932A
:1004800080919A0190919B01A0919C01B0919D0156
:10049000309199012CE7230F2D3728F02FEF230FF0
:1004A0000196A11DB11D2093990180939A0190930B
:1004B0009B01A0939C01B0939D0180919E0190911E
:1004C0009F01A091A001B091A1010196A11DB11DB4
:1004D00080939E0190939F01A093A001B093A101EE
:1004E000BF91AF919F918F913F912F910F900FBE30
:1004F0000F901F9018953FB7F89480919E019091AE
:100500009F01A091A001B091A1012FB508B602FEF4
:1005100005C02F3F19F00196A11DB11D3FBF6627F1
:10052000782F892F9A2F620F711D811D911D42E036
:10053000660F771F881F991F4A95D1F70895CF92AC
:10054000DF92EF92FF92CF93DF936B017C01D3DFB9
:10055000EB01C114D104E104F10471F0CCDF6C1B98
:100560007D0B683E7340A8F381E0C81AD108E1080A
:10057000F108C851DC4FEDCFDF91CF91FF90EF90A4
:10058000DF90CF900895789480B7806880BF80B75F
:10059000806480BF8CB580648CBD8FEF8DBD80B7CB
:1005A000807F876080BF89B7846089BF4EDF86B156
:1005B000876086B9379A0895A82FB0E0FD01E25E02
:1005C000FF4F9491FD01EC5DFF4FE491EE2311F19B
:1005D000811103C08AB58F7304C0813021F48AB5BC
:1005E0008F7C8ABD05C0843019F48CB58F7C8CBD9E
:1005F000F0E0E65DFF4FA491B0E02FB7611105C0B8
:10060000F8948C919095892303C0F8948C91892B50
:100610008C932FBF0895B7DF40DDD8DDFECF97FB69
:10062000072E16F4009406D077FD08D00BD007FCF7
:1006300005D03EF4909581959F4F089570956195F2
:100640007F4F0895AA1BBB1B51E107C0AA1FBB1F08
:10065000A617B70710F0A61BB70B881F991F5A954E
:10066000A9F780959095BC01CD010895A0E0B0E078
:10067000EBE3F3E089C0EC01688179818A819B8199
:10068000611571058105910521F464E279ED8BE531
:1006900097E02DE133EF41E050E037D049015A01B6
:1006A00027EA31E440E050E04CD069017A01C5010D
:1006B000B4012CEE34EF4FEF5FEF43D089019A0184
:1006C000D701C601800F911FA21FB31FB7FF03C040
:1006D0000197A109B04888839983AA83BB839F7738
:1006E000CDB7DEB7ECE06CC0C1DF089580E690E0E6
:1006F000BDDF0895A0E0B0E08093600090936100BA
:10070000A0936200B09363000895052E97FB16F442
:1007100000940FD057FD05D068D007FC02D046F4F6
:1007200008C050954095309521953F4F4F4F5F4FF2
:10073000089590958095709561957F4F8F4F9F4F4D
:10074000089568940013E894A0E0B0E0E9EAF3E0CB
:100750001DC0EFEFE7F959016A015E23550FEE085E
:10076000FE2C87019B01AC019E23990F660B762F0F
:10077000CB015DD0CDB7DEB7EAE024C02F923F9227
:100780004F925F926F927F928F929F92AF92BF92A1
:10079000CF92DF92EF92FF920F931F93CF93DF934D
:1007A000CDB7DEB7CA1BDB0B0FB6F894DEBF0FBEAA
:1007B000CDBF09942A88398848885F846E847D84F7
:1007C0008C849B84AA84B984C884DF80EE80FD80F9
:1007D0000C811B81AA81B981CE0FD11D0FB6F8946F
:1007E000DEBF0FBECDBFED010895A1E21A2EAA1BF8
:1007F000BB1BFD010DC0AA1FBB1FEE1FFF1FA217D1
:10080000B307E407F50720F0A21BB30BE40BF50BCD
:10081000661F771F881F991F1A9469F76095709556
:10082000809590959B01AC01BD01CF010895DF93A8
:10083000CF939F92A0E49A2E0024D001E001F00112
:1008400016950795F794E794D794C794B794A7940F
:1008500048F41068A20FB31FC41FD51FE61FF71F6F
:10086000081E191E220F331F441F551F661F771FB6
:10087000881F991F9A9421F79D01AE01BF01C00105
:0E08800011249F90CF91DF910895F894FFCF3F
:10088E0001000000009CA438D44870EC34A8900CF1
:10089E00E07C44D868F4CC50BC2018845CC0F8646A
:1008AE0088142CB0D04C74E80498A03CE47840DC5A
:1008BE0030AC9408B8241C806CF0C8548C1028B44A
:1008CE0058C4FC603CA09804E8744CD00894AC303A
:1008DE00DC4078E454C8F06C801C24B860FCC4582A
:1008EE00B428108CEC7048D438A49C00D8447CE01A
:1008FE000C90A834841820BC50CCF468B02C14880A
:10090E0064F8C05C78E4DC40AC3008944CD0E874F9
:10091E0098043CA0108CB428C45860FC24B8801CE9
:10092E00F06C54C8A8340C907CE0D8449C0038A4D9
:10093E0048D4EC70C05C64F81488B02CF46850CCC9
:10094E0020BC841844D8E07C900C34A870ECD448B9
:10095E00A438009C2CB08814F8645CC01884BC20A9
:10096E00CC5068F4940830AC40DCE478A03C049899
:10097E0074E8D04CFC6058C428B48C10C8546CF089
:04098E001C80B824ED
:00000001FF
