:1000000015C02FC02EC02DC0C8C12BC02AC029C00A
:1000100028C027C026C025C024C0BEC0DAC0010247
:1000200004081020010101010101003811241FBE44
:10003000CFE5D2E0DEBFCDBF10E0A0E6B0E0E4E562
:10004000F5E002C005900D92A036B107D9F720E087
:10005000A0E6B0E001C01D92AD39B207E1F774D25D
:1000600077C2CECFCF93DF9390E0909361008093DF
:100070006000C2E6D0E080916000909161009E0136
:1000800022563040281739072CF48FE890E05AD1D7
:100090008993F1CFDF91CF910895CF93DF93C2E69B
:1000A000D0E080916000909161009E012256304026
:1000B0002817390734F4699160958FE890E040D1B2
:1000C000F0CFDF91CF9108956EE28FE890E036D1C6
:1000D00062E370E08FE890E036D16DE470E08FE885
:1000E00090E036C161E081E000D264EF71E080E031
:1000F00090E0BED160E081E0F8D164EF71E080E093
:1001000090E0B6C1EFDF29C110927A0010927B0017
:1001100010927900109267001092680010926600A9
:1001200080938E0087B3856087BBC29AC09AB898C7
:1001300088EA8DB980EF8EB908959091660090316C
:10014000E1F3E0916800F0E0E759FF4F8083809190
:1001500068008F5F8F7080936800809166008F5F6A
:10016000809366000895809179008823E1F3E091FF
:100170007A00F0E0E458FF4F808190917A009F5F11
:100180009F7090937A0090917900915090937900AC
:1001900008958091790008951F920F920FB60F92E3
:1001A00011248F9310928D0010928C00B898B29BFE
:1001B00002C0B09BFCCFB09902C088EF01C088EAB2
:1001C0008DB980EF8EB98F910F900FBE0F901F9059
:1001D00018951F920F920FB60F9211242F933F93F1
:1001E0004F935F936F937F938F939F93AF93BF933F
:1001F000EF93FF9380918C0090918D008230910558
:1002000009F459C028F4009761F0019779F185C08D
:100210008430910509F458C030F1059709F45DC0A8
:100220007CC08FB1882331F08FB1869590918E007C
:1002300089133EC0789B67C0E0919000F0919100D7
:10024000309739F080917900882319F080917900F6
:100250000995E0919200F0919300309709F009958B
:1002600081E090E052C08FB1811122C08091660080
:100270008823D1F0E0916700F0E0E759FF4F8081DB
:100280008FB9809167008F5F8F7080936700809136
:10029000660081508093660082E090E090938D002C
:1002A00080938C00B89A17C0B8981FB88EE78EB9A3
:1002B00088EA8DB910C083E090E090938D00809320
:1002C0008C00B8981FB827C085E090E090938D000F
:1002D00080938C00B89880E71FC0809179008031AE
:1002E00090F4E0917B008FB1F0E0E458FF4F808301
:1002F00080917B008F5F8F7080937B00809179006D
:100300008F5F8093790084E090E090938D008093DC
:100310008C001FB8B89A8EE78EB9FF91EF91BF910C
:10032000AF919F918F917F916F915F914F913F918D
:100330002F910F900FBE0F901F901895862FE4CE2F
:10034000862FFBCE10CF709391006093900008959C
:100350007093930060939200089580919000909123
:100360009100892B51F0759B08C013DF882329F079
:10037000E0919000F09191000994089583B7887FEF
:1003800083BF8AB58C7F81608ABD83B7877F83BF37
:1003900083B7887F836083BF089578941F920F92FC
:1003A0000FB60F9211242F933F938F939F93AF9388
:1003B000BF938091950090919600A0919700B09185
:1003C0009800309194002CE7230F2D3728F02FEF61
:1003D000230F0196A11DB11D2093940080939500D9
:1003E00090939600A0939700B09398008091990005
:1003F00090919A00A0919B00B0919C000196A11D44
:10040000B11D8093990090939A00A0939B00B093A4
:100410009C00BF91AF919F918F913F912F910F9031
:100420000FBE0F901F9018953FB7F89480919900D8
:1004300090919A00A0919B00B0919C002FB508B6B6
:1004400002FE05C02F3F19F00196A11DB11D3FBF4F
:100450006627782F892F9A2F620F711D811D911D9C
:1004600042E0660F771F881F991F4A95D1F70895BC
:10047000CF92DF92EF92FF92CF93DF936B017C01DB
:10048000D3DFEB01C114D104E104F10471F0CCDF3E
:100490006C1B7D0B683E7340A8F381E0C81AD1083D
:1004A000E108F108C851DC4FEDCFDF91CF91FF900B
:1004B000EF90DF90CF900895789480B7806880BFE8
:1004C00080B7806480BF8CB580648CBD8FEF8DBD9C
:1004D00080B7807F876080BF89B7846089BF4EDF27
:1004E00086B1876086B9379A0895A82FB0E0FD01DC
:1004F000E25EFF4F9491FD01EC5DFF4FE491EE232E
:1005000011F1811103C08AB58F7304C0813021F4C9
:100510008AB58F7C8ABD05C0843019F48CB58F7C78
:100520008CBDF0E0E65DFF4FA491B0E02FB7611104
:1005300005C0F8948C919095892303C0F8948C9110
:10054000892B8C932FBF0895B7DFBEDDDBDDFECF97
:04055000F894FFCF4D
:00000001FF
