:1000000015C02FC02EC02DC042C22BC02AC029C08F
:1000100028C027C026C025C024C049C165C101022F
:1000200004081020010101010101003811241FBE44
:10003000CFE5D2E0DEBFCDBF11E0A0E6B0E0E8E45E
:10004000F6E002C005900D92A036B107D9F721E085
:10005000A0E6B1E001C01D92AE39B207E1F7EED2E1
:10006000F1C2CECFCF93DF9390E090936101809364
:100070006001C2E6D1E080916001909161019E0132
:1000800022563140281739072CF480E991E0E5D158
:100090008993F1CFDF91CF9108956EE280E991E0ED
:1000A000D8D162E370E080E991E0D8D16AE670E0EF
:1000B00080E991E0D8C1FC01680F791F80E0E61764
:1000C000F70739F0A191A827B0E0A05ABF4F8C9153
:1000D000F6CF0895EF92FF920F931F93CF93DF9384
:1000E00000D000D0CDB7DEB780916601882319F02B
:1000F00002E611E065C080916201182F1095813EE3
:1001000069F018F48A3D79F104C0893E29F08B3FEB
:1001100051F002E611E042C061E001C060E081E020
:100120005ED2612F13C0809163018F7E8093630143
:1001300063E070E082E691E0BEDF082F61E081E0DD
:100140004ED2612F80E991E086D1602F80E991E065
:100150000F900F900F900F90DF91CF911F910F9103
:10016000FF90EF9078C1198387E08A838EE28B83BA
:1001700085E08C8360E081E032D28E010F5F1F4FFB
:100180007E0185E0E80EF11CF80161918F0180E9A4
:1001900091E061D10E151F05B9F724C0809160016F
:1001A0009091610198012256314028173907D4F403
:1001B000F80161918F01609580E991E04CD1EECF1B
:1001C0008091600190916101980122563140281779
:1001D000390744F4F80161918F01609580E991E05D
:1001E0003AD1EECF0F900F900F900F90DF91CF91FB
:1001F0001F910F91FF90EF90089561E081E0EFD1A2
:1002000064EF71E080E090E0ADD160E081E0E7D1A3
:1002100064EF71E080E090E0A5C1809166018111FA
:10022000ECCF089510927B0110927C0110927A011C
:1002300010926801109269011092670180938F01FA
:1002400087B3856087BBC29AC09AB89888EA8DB98F
:1002500080EF8EB90895909167019031E1F3E091BC
:100260006901F0E0E659FE4F8083809169018F5F5C
:100270008F7080936901809167018F5F8093670120
:10028000089580917A018823E1F3E0917B01F0E009
:10029000E358FE4F808190917B019F5F9F70909308
:1002A0007B0190917A01915090937A0108951F9269
:1002B0000F920FB60F9211248F9310928E0110920D
:1002C0008D01B898B29B02C0B09BFCCFB09902C020
:1002D00088EF01C088EA8DB980EF8EB98F910F90B9
:1002E0000FBE0F901F9018951F920F920FB60F928E
:1002F00011242F933F934F935F936F937F938F932B
:100300009F93AF93BF93EF93FF9380918D01909153
:100310008E018230910509F459C028F4009761F0EC
:10032000019779F185C08430910509F458C030F106
:10033000059709F45DC07CC08FB1882331F08FB17F
:10034000869590918F0189133EC0789B67C0E0919C
:100350009101F0919201309739F080917A018823D0
:1003600019F080917A010995E0919301F09194013F
:10037000309709F0099581E090E052C08FB181116A
:1003800022C0809167018823D1F0E0916801F0E0FC
:10039000E659FE4F80818FB9809168018F5F8F7021
:1003A000809368018091670181508093670182E0AA
:1003B00090E090938E0180938D01B89A17C0B89801
:1003C0001FB88EE78EB988EA8DB910C083E090E03F
:1003D00090938E0180938D01B8981FB827C085E057
:1003E00090E090938E0180938D01B89880E71FC0B4
:1003F00080917A01803190F4E0917C018FB1F0E03E
:10040000E358FE4F808380917C018F5F8F708093D3
:100410007C0180917A018F5F80937A0184E090E083
:1004200090938E0180938D011FB8B89A8EE78EB994
:10043000FF91EF91BF91AF919F918F917F916F91BC
:100440005F914F913F912F910F900FBE0F901F9092
:100450001895862FE7CE862FFECE13CF709392018C
:1004600060939101089570939401609393010895AE
:1004700083B7887F83BF8AB58C7F81608ABD83B74D
:10048000877F83BF83B7887F836083BF0895789415
:100490001F920F920FB60F9211242F933F938F93B9
:1004A0009F93AF93BF938091960190919701A091F4
:1004B0009801B0919901309195012CE7230F2D37C8
:1004C00028F02FEF230F0196A11DB11D2093950158
:1004D0008093960190939701A0939801B09399010E
:1004E00080919A0190919B01A0919C01B0919D01F6
:1004F0000196A11DB11D80939A0190939B01A09339
:100500009C01B0939D01BF91AF919F918F913F91BD
:100510002F910F900FBE0F901F9018953FB7F89432
:1005200080919A0190919B01A0919C01B0919D01B5
:100530002FB508B602FE05C02F3F19F00196A11D88
:10054000B11D3FBF6627782F892F9A2F620F711D2B
:10055000811D911D42E0660F771F881F991F4A95E4
:10056000D1F70895CF92DF92EF92FF92CF93DF936E
:100570006B017C01D3DFEB01C114D104E104F10470
:1005800071F0CCDF6C1B7D0B683E7340A8F381E0FB
:10059000C81AD108E108F108C851DC4FEDCFDF914E
:1005A000CF91FF90EF90DF90CF900895789480B72F
:1005B000806880BF80B7806480BF8CB580648CBD4C
:1005C0008FEF8DBD80B7807F876080BF89B78460E3
:1005D00089BF4EDF86B1876086B9379A0895A82F04
:1005E000B0E0FD01E25EFF4F9491FD01EC5DFF4F35
:1005F000E491EE2311F1811103C08AB58F7304C019
:10060000813021F48AB58F7C8ABD05C0843019F40D
:100610008CB58F7C8CBDF0E0E65DFF4FA491B0E01F
:100620002FB7611105C0F8948C919095892303C070
:10063000F8948C91892B8C932FBF0895B7DF2DDD13
:08064000ECDDFECFF894FFCFC2
:10064800009CA438D44870EC34A8900CE07C44D8C2
:1006580068F4CC50BC2018845CC0F86488142CB0B2
:10066800D04C74E80498A03CE47840DC30AC9408A2
:10067800B8241C806CF0C8548C1028B458C4FC6092
:100688003CA09804E8744CD00894AC30DC4078E482
:1006980054C8F06C801C24B860FCC458B428108C72
:1006A800EC7048D438A49C00D8447CE00C90A83462
:1006B800841820BC50CCF468B02C148864F8C05C52
:1006C80078E4DC40AC3008944CD0E87498043CA042
:1006D800108CB428C45860FC24B8801CF06C54C832
:1006E800A8340C907CE0D8449C0038A448D4EC7022
:1006F800C05C64F81488B02CF46850CC20BC841812
:1007080044D8E07C900C34A870ECD448A438009C01
:100718002CB08814F8645CC01884BC20CC5068F4F1
:10072800940830AC40DCE478A03C049874E8D04CE1
:10073800FC6058C428B48C10C8546CF01C80B824D1
:00000001FF
