:1000000015C02FC02EC02DC02FC22BC02AC029C0A2
:1000100028C027C026C025C024C025C141C1010277
:1000200004081020010101010101003811241FBE44
:10003000CFE5D2E0DEBFCDBF11E0A0E6B0E0EEE854
:10004000F8E002C005900D92A636B107D9F721E07D
:10005000A6E6B1E001C01D92A33AB207E1F7DBD2F8
:1000600014C4CECFCF93DF9390E090936701809339
:100070006601C8E6D1E080916601909167019E011A
:1000800028563140281739072CF485E991E0C1D171
:100090008993F1CFDF91CF9108956EE285E991E0E8
:1000A000B4D162E370E085E991E0B4D16AE670E032
:1000B00085E991E0B4C1FC01680F791F80E0E61783
:1000C000F70739F0A191A827B0E0AB59BF4F8C9149
:1000D000F6CF0895EF92FF920F931F93CF93DF9384
:1000E00000D000D0CDB7DEB780916400882319F02E
:1000F00008E611E03EC080916801182F1095813EFE
:1001000031F1E8F48A3D09F046C0F0D260E074E0D5
:1001100086D219821A821B821C82198393709A8359
:100120008B8363E070E0CE010196C5DF8C838E0186
:100130000F5F1F4F7E0185E0E80EF11C10C0893E65
:1001400021F08B3F41F564E006C061E001C060E052
:1001500081E032D2612F85E991E059D11CC0F801CC
:1001600061918F0185E991E052D10E151F05B9F714
:1001700012C0809166019091670198012856314024
:100180002817390744F4F80161918F01609585E9DA
:1001900091E03DD1EECF0F900F900F900F90DF9137
:1001A000CF911F910F91FF90EF90089561E081E052
:1001B00003D264EF71E080E090E0C1D160E081E0C3
:1001C000FBD164EF71E080E090E0B9C18091640000
:1001D0008111ECDF29C110928001109281011092EF
:1001E0007F0110926D0110926E0110926C0180934C
:1001F000940187B3856087BBC29AC09AB89888EA91
:100200008DB980EF8EB9089590916C019031E1F332
:10021000E0916E01F0E0E159FE4F808380916E0124
:100220008F5F8F7080936E0180916C018F5F8093E0
:100230006C01089580917F018823E1F3E0918001B2
:10024000F0E0EE57FE4F8081909180019F5F9F709C
:100250009093800190917F01915090937F01089538
:1002600080917F0108951F920F920FB60F92112473
:100270008F931092930110929201B898B29B02C092
:10028000B09BFCCFB09902C088EF01C088EA8DB95D
:1002900080EF8EB98F910F900FBE0F901F90189521
:1002A0001F920F920FB60F9211242F933F934F93EB
:1002B0005F936F937F938F939F93AF93BF93EF93CE
:1002C000FF9380919201909193018230910509F4FE
:1002D00059C028F4009761F0019779F185C0843006
:1002E000910509F458C030F1059709F45DC07CC050
:1002F0008FB1882331F08FB1869590919401891345
:100300003EC0789B67C0E0919601F09197013097CD
:1003100039F080917F01882319F080917F01099540
:10032000E0919801F0919901309709F0099581E0E9
:1003300090E052C08FB1811122C080916C0188235E
:10034000D1F0E0916D01F0E0E159FE4F80818FB96D
:1003500080916D018F5F8F7080936D0180916C0132
:10036000815080936C0182E090E0909393018093A0
:100370009201B89A17C0B8981FB88EE78EB988EA6C
:100380008DB910C083E090E0909393018093920127
:10039000B8981FB827C085E090E0909393018093B0
:1003A0009201B89880E71FC080917F01803190F45E
:1003B000E09181018FB1F0E0EE57FE4F8083809194
:1003C00081018F5F8F708093810180917F018F5FAA
:1003D00080937F0184E090E0909393018093920159
:1003E0001FB8B89A8EE78EB9FF91EF91BF91AF9188
:1003F0009F918F917F916F915F914F913F912F913D
:100400000F900FBE0F901F901895862FE4CE862F69
:10041000FBCE10CF7093970160939601089570936F
:1004200099016093980108958091960190919701A8
:10043000892B51F0759B08C013DF882329F0E091C8
:100440009601F09197010994089583B7887F83BF3F
:100450008AB58C7F81608ABD83B7877F83BF83B76E
:10046000887F836083BF089578941F920F920FB6A0
:100470000F9211242F933F938F939F93AF93BF932A
:1004800080919B0190919C01A0919D01B0919E0152
:1004900030919A012CE7230F2D3728F02FEF230FEF
:1004A0000196A11DB11D20939A0180939B01909309
:1004B0009C01A0939D01B0939E0180919F0190911A
:1004C000A001A091A101B091A2010196A11DB11DB1
:1004D00080939F019093A001A093A101B093A201EA
:1004E000BF91AF919F918F913F912F910F900FBE30
:1004F0000F901F9018953FB7F89480919F019091AD
:10050000A001A091A101B091A2012FB508B602FEF1
:1005100005C02F3F19F00196A11DB11D3FBF6627F1
:10052000782F892F9A2F620F711D811D911D42E036
:10053000660F771F881F991F4A95D1F70895CF92AC
:10054000DF92EF92FF92CF93DF936B017C01D3DFB9
:10055000EB01C114D104E104F10471F0CCDF6C1B98
:100560007D0B683E7340A8F381E0C81AD108E1080A
:10057000F108C851DC4FEDCFDF91CF91FF90EF90A4
:10058000DF90CF900895789480B7806880BF80B75F
:10059000806480BF8CB580648CBD8FEF8DBD80B7CB
:1005A000807F876080BF89B7846089BF4EDF86B156
:1005B000876086B9379A0895A82FB0E0FD01E25E02
:1005C000FF4F9491FD01EC5DFF4FE491EE2311F19B
:1005D000811103C08AB58F7304C0813021F48AB5BC
:1005E0008F7C8ABD05C0843019F48CB58F7C8CBD9E
:1005F000F0E0E65DFF4FA491B0E02FB7611105C0B8
:10060000F8948C919095892303C0F8948C91892B50
:100610008C932FBF0895B7DF40DDD8DDFECF97FB69
:10062000072E16F4009406D077FD08D00BD007FCF7
:1006300005D03EF4909581959F4F089570956195F2
:100640007F4F0895AA1BBB1B51E107C0AA1FBB1F08
:10065000A617B70710F0A61BB70B881F991F5A954E
:10066000A9F780959095BC01CD010895A0E0B0E078
:10067000EBE3F3E089C0EC01688179818A819B8199
:10068000611571058105910521F464E279ED8BE531
:1006900097E02DE133EF41E050E037D049015A01B6
:1006A00027EA31E440E050E04CD069017A01C5010D
:1006B000B4012CEE34EF4FEF5FEF43D089019A0184
:1006C000D701C601800F911FA21FB31FB7FF03C040
:1006D0000197A109B04888839983AA83BB839F7738
:1006E000CDB7DEB7ECE06CC0C1DF089580E690E0E6
:1006F000BDDF0895A0E0B0E08093600090936100BA
:10070000A0936200B09363000895052E97FB16F442
:1007100000940FD057FD05D068D007FC02D046F4F6
:1007200008C050954095309521953F4F4F4F5F4FF2
:10073000089590958095709561957F4F8F4F9F4F4D
:10074000089568940013E894A0E0B0E0E9EAF3E0CB
:100750001DC0EFEFE7F959016A015E23550FEE085E
:10076000FE2C87019B01AC019E23990F660B762F0F
:10077000CB015DD0CDB7DEB7EAE024C02F923F9227
:100780004F925F926F927F928F929F92AF92BF92A1
:10079000CF92DF92EF92FF920F931F93CF93DF934D
:1007A000CDB7DEB7CA1BDB0B0FB6F894DEBF0FBEAA
:1007B000CDBF09942A88398848885F846E847D84F7
:1007C0008C849B84AA84B984C884DF80EE80FD80F9
:1007D0000C811B81AA81B981CE0FD11D0FB6F8946F
:1007E000DEBF0FBECDBFED010895A1E21A2EAA1BF8
:1007F000BB1BFD010DC0AA1FBB1FEE1FFF1FA217D1
:10080000B307E407F50720F0A21BB30BE40BF50BCD
:10081000661F771F881F991F1A9469F76095709556
:10082000809590959B01AC01BD01CF010895DF93A8
:10083000CF939F92A0E49A2E0024D001E001F00112
:1008400016950795F794E794D794C794B794A7940F
:1008500048F41068A20FB31FC41FD51FE61FF71F6F
:10086000081E191E220F331F441F551F661F771FB6
:10087000881F991F9A9421F79D01AE01BF01C00105
:0E08800011249F90CF91DF910895F894FFCF3F
:10088E000100000001009CA438D44870EC34A890FC
:10089E000CE07C44D868F4CC50BC2018845CC0F8C2
:1008AE006488142CB0D04C74E80498A03CE47840D2
:1008BE00DC30AC9408B8241C806CF0C8548C102822
:1008CE00B458C4FC603CA09804E8744CD00894ACB6
:1008DE0030DC4078E454C8F06C801C24B860FCC452
:1008EE0058B428108CEC7048D438A49C00D8447CA2
:1008FE00E00C90A834841820BC50CCF468B02C14B2
:10090E008864F8C05C78E4DC40AC3008944CD0E8E5
:10091E007498043CA0108CB428C45860FC24B88091
:10092E001CF06C54C8A8340C907CE0D8449C003861
:10093E00A448D4EC70C05C64F81488B02CF46850F1
:10094E00CC20BC841844D8E07C900C34A870ECD435
:10095E0048A438009C2CB08814F8645CC01884BC81
:10096E0020CC5068F4940830AC40DCE478A03C0411
:10097E009874E8D04CFC6058C428B48C10C8546CE1
:06098E00F01C80B82400FB
:00000001FF
