:1000000018C03CC03BC03AC080C538C037C036C0FD
:1000100035C034C033C032C031C030C02FC001023F
:100020000408102001010101010100380037F30725
:10003000380811241FBECFE5D2E0DEBFCDBF14E0EB
:10004000A0E6B0E0E0E2F1E102C005900D92AE372B
:10005000B107D9F724E0AEE7B4E001C01D92AB3A96
:10006000B207E1F710E0C2E3D0E003C02297FE013F
:100070002AD8CE32D107D1F756D650C8C1CFDC012D
:1000800012968D919C911397DC01ED91FC91028069
:10009000F381E02D099581E090E00895CF93DF93FF
:1000A00066E671E083EA94E07DD7C8E0D0E06C2F8B
:1000B00084E894E0CCD484E894E0F6D4811121C0A3
:1000C0006BE771E083EA94E071D64AE050E06C2F70
:1000D00083EA94E049D767E971E083EA94E066D661
:1000E00040E150E06C2F83EA94E03ED762EE72E08C
:1000F00083EA94E057D768EE73E080E090E070D533
:10010000DC2FCF5FC83799F68D2FDF91CF910895FF
:10011000FC01680F791F80E0E617F70739F0A1911D
:10012000A827B0E0AA59BF4F8C91F6CF08956BE194
:1001300083EA94E0A4DF6CE971E083EA94E036D6C8
:100140006BE183EA94E09BDF60EA71E083EA94E08C
:100150002DC661E082E081D589EA94E09093A604FF
:100160008093A504E091A904F091AA040190F08184
:10017000E02D099584E894E069D460E082E0A4D59C
:100180006AE070E080E090E02BD561E082E09CD5F1
:1001900068EE73E080E090E023D5809182048111C5
:1001A00004C07CDF80938204F3CFC1DF63EA71E097
:1001B00083EA94E0F7D66EEB71E083EA94E0F2D63E
:1001C00069ED71E083EA94E0EDC6CF93DF93CDB79C
:1001D000DEB760970FB6F894DEBF0FBECDBFCE017D
:1001E000019675D78F3F9105C1F0B8F080917F04DB
:1001F000882399F069E374E083EA94E0D3D667E05A
:1002000072E083EA94E0D2D5CE01019660D740E057
:1002100050E0682F83EA94E0CDD6CE01019657D7FF
:1002200060960FB6F894DEBF0FBECDBFDF91CF91C1
:100230000895AF92BF92CF92DF92EF92FF920F9309
:100240001F93CF93DF93CDB7DEB7809180048823CF
:1002500009F431C31092800469E374E083EA94E006
:10026000A1D680917E04833509F491C054F484347E
:1002700009F40AC1863409F40AC2813409F0F6C2CD
:100280000EC0843609F400C11CF4813641F0EEC280
:10029000863609F4FCC1833709F479C0E7C2CDB6CC
:1002A000DEB66FE372E083EA94E080D540E050E090
:1002B00069EE83EA94E058D66DE572E083EA94E053
:1002C00071D66091820484E894E0C1D369EE84E839
:1002D00094E0C3D384E894E0E7D341E060918204E2
:1002E00084E894E0E3D38093810468E672E083EAD3
:1002F00094E05CD540E050E06091810483EA94E0B2
:1003000033D669E374E083EA94E04CD680918104AB
:100310002DB73EB7281B31090FB6F8943EBF0FBE6C
:100320002DBF0DB71EB70F5F1F4F7801809181045D
:1003300090E09701201B310B281739073CF484E823
:1003400094E0C9D3F70181937F01F0CFF8011081C8
:100350001631A1F46EE872E083EA94E027D540E01C
:1003600050E069EE83EA94E0FFD561EA72E083EA47
:1003700094E01CD540E050E066E180C161EB72E0A2
:1003800083EA94E013D540E050E069EE77C0CDB643
:10039000DEB66FE372E083EA94E008D540E050E017
:1003A00061EE83EA94E0E0D569ED72E083EA94E0DF
:1003B000F9D56091820484E894E049D361EE84E841
:1003C00094E04BD384E894E06FD341E060918204E1
:1003D00084E894E06BD38093810468E672E083EA5A
:1003E00094E0E4D440E050E06091810483EA94E03A
:1003F000BBD569E374E083EA94E0D4D580918104AD
:100400002DB73EB7281B31090FB6F8943EBF0FBE7B
:100410002DBF0DB71EB70F5F1F4F7801809181046C
:1004200090E09701201B310B281739073CF484E832
:1004300094E051D3F70181937F01F0CFF80110814F
:100440001E31A1F46EE872E083EA94E0AFD440E09C
:1004500050E061EE83EA94E087D561EA72E083EAD6
:1004600094E0A4D440E050E06EE108C161EB72E09A
:1004700083EA94E09BD440E050E061EE83EA94E0AC
:1004800073D56AEC72E0E0C0CDB6DEB664EE72E021
:1004900083EA94E08BD440E050E06BEF83EA94E091
:1004A00063D566EF72E083EA94E07CD561E073E0A7
:1004B00083EA94E07BD4B12C80917F04811103C046
:1004C00084DEB82EF9CF69E374E083EA94E06AD55C
:1004D00067E373E083EA94E069D440E050E06B2D79
:1004E00083EA94E067D569E374E083EA94E05AD53F
:1004F0006FE372E083EA94E059D440E050E06BEFA0
:1005000083EA94E031D566EF72E083EA94E04AD55D
:1005100062E673E083EA94E049D440E050E06B2D5A
:1005200083EA94E021D561E873E083EA94E03ED465
:1005300040E050E06B2D83EA94E016D562EE72E065
:1005400083EA94E02FD56091820484E894E07FD21E
:100550006BEF84E894E081D284E894E0A5D26091C6
:10056000820484E894E073D26B2D84E894E075D221
:1005700084E894E099D210927F0442E06091820472
:1005800084E894E093D28093810468E672E083EA81
:1005900094E00CD440E050E06091810483EA94E060
:1005A000E3D469E374E083EA94E0FCD480918104AD
:1005B0002DB73EB7281B31090FB6F8943EBF0FBECA
:1005C0002DBF0DB71EB70F5F1F4F7801209181041B
:1005D00030E0A701401B510B421753073CF484E85D
:1005E00094E079D2F70181937F01F0CFF801F08098
:1005F000F4E0FF1230C06EE872E083EA94E0D6D3F4
:1006000040E050E06BEF83EA94E0AED461EA72E040
:1006100083EA94E0CBD340E050E064E083EA94E0E6
:10062000C9D4F80111818B2D809518132AC063E875
:1006300073E083EA94E0BAD340E050E06B2D83EAA4
:1006400094E092D461EA72E083EA94E0AFD340E0B0
:1006500050E0612F13C061EB72E083EA94E0A6D30F
:1006600040E050E06BEF83EA94E07ED46AEC72E005
:1006700083EA94E09BD340E050E06F2D83EA94E05E
:1006800099D40FB6F894DEBE0FBECDBE00C1ADB694
:10069000BEB664EE72E083EA94E088D340E050E0B6
:1006A0006AED83EA94E060D466E973E083EA94E05B
:1006B00079D46091820484E894E0C9D16AED84E839
:1006C00094E0CBD184E894E0EFD144E060918204DF
:1006D00084E894E0EBD180938104C82ED12C2DB70F
:1006E0003EB72C193D090FB6F8943EBF0FBE2DBF83
:1006F0000DB71EB70F5F1F4F78018091810490E006
:100700009701201B310B281739073CF484E894E04B
:10071000E2D1F70181937F01F0CFF801E18082817E
:100720009081953209F085C0F12CFE2CEE24E80E64
:10073000F11C6EE872E083EA94E038D340E050E0C8
:100740006AED83EA94E010D461EA72E083EA94E00F
:100750002DD340E050E0F801608183EA94E02AD490
:1007600061EA73E083EA94E021D34AE050E0B70104
:1007700083EA94E0FFD361E873E083EA94E016D360
:100780004AE050E0B70183EA94E0F4D368EB73E009
:1007900083EA94E00BD340E050E0F801618183EA02
:1007A00094E0E2D365EC73E083EA94E0FFD240E0AA
:1007B00050E0F801628183EA94E0D6D36DEC73E0F7
:1007C00083EA94E0F3D240E050E0F801638183EAE9
:1007D00094E0F0D3B601C8019BDC182F811113C03F
:1007E00065ED73E083EA94E0DDD36FEE73E083EAB6
:1007F00094E0D8D340E050E060E083EA94E0DAD3BC
:1008000065ED73E012C067E074E083EA94E0CAD358
:1008100063E274E083EA94E0C5D340E050E0612FE6
:1008200083EA94E0C7D367E074E083EA94E0BAD344
:1008300017C061EB72E083EA94E0B8D240E050E088
:100840006AED83EA94E090D36AEC72E083EA94E084
:10085000ADD240E050E0F801608183EA94E0AAD391
:100860000FB6F894BEBE0FBEADBE11C06AE374E011
:1008700083EA94E09BD240E050E060917E0483EAFA
:1008800094E05ED36EE474E083EA94E08BD369E392
:1008900074E083EA94E086D369ED71E083EA94E042
:1008A000DF91CF911F910F91FF90EF90DF90CF904C
:1008B000BF90AF9077C3DF91CF911F910F91FF90C1
:1008C000EF90DF90CF90BF90AF900895C09AC29AFA
:1008D000BA9AB89A8FEF8FB98AE28DB980EF8EB944
:1008E00008958091830408958EB98BE29BE19A95D7
:1008F000F1F700C08DB9B29BFECF96E19A95F1F762
:100900008DB9769BF3CF8BE18A95F1F700C08FB15B
:100910009FEF9FB9B89A0895C29AC29BFECF8BE110
:100920008A95F1F700C0C09886E18A95F1F7C298E0
:10093000C09A81E00895AF92BF92CF92DF92EF927A
:10094000FF920F931F93CF93DF93EC01C62E8091FC
:100950008304816080938304988190FD03C082604A
:1009600080938304D9DF882309F454C0FC2C8E01C2
:10097000BB24BA94AA24A394209183042370C801B1
:100980000196222371F1C298D82EE92EF8018081B8
:100990008FB980EFA9DFB8988EEFA6DF909183041E
:1009A00080FF0BC0892F817090FF05C081E080938C
:1009B000830480E02FC092E00DC0892F85708430C1
:1009C00061F4888181608883A0928304A5DF81110E
:1009D00018C09AE0909383041DC09E7F9093830477
:1009E00013C0B898D82EE92E80EF7EDFF8018083FF
:1009F000F1E0FF1202C0BFB801C01FB88EEF74DF74
:100A000003C0FC2CDC2EED2EFA9419F00D2D1E2DBA
:100A1000B3CF81E0DF91CF911F910F91FF90EF90C5
:100A2000DF90CF90BF90AF9008951092830483CF52
:100A3000C098C29AB29BFECF86E18A95F1F7C09A20
:100A40008BE18A95F1F700C081E008953FCF1092C5
:100A50008704660F609388040895E0918704E2316B
:100A600050F4EF5FE0938704F0E0E857FB4F6083BA
:100A700081E090E0089580E090E00895CF93C62F44
:100A8000609187046F5F88E894E0CFDF109287045D
:100A9000882329F0CC2329F0CBDF811102C0CF912C
:100AA00020CF80E0CF91089561E0E8CF10928604D6
:100AB00040938504660F61606093880461E0640F71
:100AC00088E894E0B2DF882319F0B2DF811101C019
:100AD00008CF80E00895E0918604EF5FE0938604FC
:100AE000F0E0E857FB4F808190E0089583B7887F5E
:100AF00083BF8AB58C7F81608ABD83B7877F83BFC0
:100B000083B7887F836083BF089578941F920F9284
:100B10000FB60F9211242F933F938F939F93AF9310
:100B2000BF9380919B0490919C04A0919D04B091EF
:100B30009E0430919A042CE7230F2D3728F02FEFD5
:100B4000230F0196A11DB11D20939A0480939B044D
:100B500090939C04A0939D04B0939E0480919F0465
:100B60009091A004A091A104B091A2040196A11DAE
:100B7000B11D80939F049093A004A093A104B0930F
:100B8000A204BF91AF919F918F913F912F910F90B0
:100B90000FBE0F901F9018953FB7F89480919F0457
:100BA0009091A004A091A104B091A2042FB508B621
:100BB00002FE05C02F3F19F00196A11DB11D3FBFD8
:100BC0006627782F892F9A2F620F711D811D911D25
:100BD00042E0660F771F881F991F4A95D1F7089545
:100BE000CF92DF92EF92FF92CF93DF936B017C0164
:100BF000D3DFEB01C114D104E104F10471F0CCDFC7
:100C00006C1B7D0B683E7340A8F381E0C81AD108C5
:100C1000E108F108C851DC4FEDCFDF91CF91FF9093
:100C2000EF90DF90CF900895789480B7806880BF70
:100C300080B7806480BF8CB580648CBD8FEF8DBD24
:100C400080B7807F876080BF89B7846089BF4EDFAF
:100C500086B1876086B9379A0895CF93DF9390E085
:100C6000FC01E25EFF4F2491FC01EC5DFF4F84919B
:100C7000882339F190E0FC01E45DFF4FA491B0E0DE
:100C8000FC01E65DFF4F8491611106C09FB7F894A7
:100C90008C912095822313C0623069F4C82FD0E074
:100CA0009FB7F8948C91322F309583238C93888151
:100CB000822B888305C09FB7F8948C91822B8C93EC
:100CC0009FBFDF91CF910895A82FB0E0FD01E25EB4
:100CD000FF4F9491FD01EC5DFF4FE491EE2311F184
:100CE000811103C08AB58F7304C0813021F48AB5A5
:100CF0008F7C8ABD05C0843019F48CB58F7C8CBD87
:100D0000F0E0E65DFF4FA491B0E02FB7611105C0A0
:100D1000F8948C919095892303C0F8948C91892B39
:100D20008C932FBF089580DF14DA83DAFECF0F9300
:100D30001F93CF93DF93EC018B01F80161918F0139
:100D4000662341F0E881F9810190F081E02DCE0128
:100D50000995F3CFDF91CF911F910F910895EF92F5
:100D6000FF920F931F93CF93DF937C018A01EB01D6
:100D7000060F171FC017D10751F06991D701ED91E8
:100D8000FC910190F081E02DC7010995F3CFDF912F
:100D9000CF911F910F91FF90EF900895DC01ED919D
:100DA000FC910190F081E02D642F0994DC01ED911C
:100DB000FC910280F381E02D09944F925F926F9233
:100DC0007F928F929F92AF92BF92CF92DF92EF92DB
:100DD000FF920F931F93CF93DF93CDB7DEB7A0970A
:100DE0000FB6F894DEBF0FBECDBF5C0141155105B3
:100DF00061057105D9F440E350E060E070E0A09631
:100E00000FB6F894DEBF0FBECDBFDF91CF911F911B
:100E10000F91FF90EF90DF90CF90BF90AF909F9099
:100E20008F907F906F905F904F90B8CF8E010F5F43
:100E30001F4FC12CD12C76014801422E512C612C20
:100E4000712C8FEFC81AD80AE80AF80ACB01BA0148
:100E5000A301920114D1CA01F80161938F01A90184
:100E6000BC01411551056105710559F7F1E0CF1A33
:100E7000D108E108F108F401EC0DFD1D80818A30F4
:100E800010F440E301C047E3480F552747FD509554
:100E9000652F752FC50182DF81E0C81AD108E108EE
:100EA000F108EFEFCE16DE06EE06FE0621F7A0965D
:100EB0000FB6F894DEBF0FBECDBFDF91CF911F916B
:100EC0000F91FF90EF90DF90CF90BF90AF909F90E9
:100ED0008F907F906F905F904F900895CF92DF92A8
:100EE000EF92FF92CF93DF93EC016A017B01211512
:100EF000310539F4DF91CF91FF90EF90DF90CF90E3
:100F00004DCF2A30310591F477FF0FC020E030E05B
:100F10004DE250E060E070E0E1DFF094E094D094C6
:100F2000C094C11CD11CE11CF11C2AE0B701A60130
:100F3000CE01DF91CF91FF90EF90DF90CF903DCF2A
:100F40009A01462F552747FD5095652F752FC6CF1F
:100F50002115310541F4DC01ED91FC910190F08106
:100F6000E02D642F099429CF9A01462F50E060E0CC
:100F700070E0EECF9A01AB0160E070E0E9CFCF9373
:100F8000DF93EC014DE050E060E070E007DF4AE005
:100F900050E060E070E0CE0101DF82E090E0DF91A0
:100FA000CF910895CF93DF93EC0100DFCE01DF9165
:100FB000CF91E5CFCF93DF93EC019A01462F50E01C
:100FC00060E070E0C5DFCE01DF91CF91D8CF08950A
:100FD000089580E090E008958FEF9FEF08958FEFE0
:100FE0009FEF08950895E7EAF4E080E694E09183A6
:100FF000808388E694E09093A4048093A304F09304
:10100000A604E093A5040895BA9AC29A0895862F7B
:10101000880F8E7162956F70606122E095E056E1F5
:10102000F89407C00000000000000000000000006D
:101030000000879510F0C29802C0C29A0000579530
:1010400010F40000000036E04AE54A95F1F7000090
:101050003A95D1F70000000000009A9519F70000BA
:101060002A9521F095E0862F5BE1E3CF78940895EF
:101070008AE794E09093AA048093A9040895A1E2DA
:101080001A2EAA1BBB1BFD010DC0AA1FBB1FEE1F02
:10109000FF1FA217B307E407F50720F0A21BB30B4D
:1010A000E40BF50B661F771F881F991F1A9469F7C9
:1010B00060957095809590959B01AC01BD01CF0125
:1010C0000895EE0FFF1F0590F491E02D0994FC01A7
:1010D00088279927E89421912032E9F3293010F0EC
:1010E0002E30C8F32B3239F02D3231F4689403C01E
:1010F0000BD0820F911D219120532A30C8F31EF48A
:10110000909581959F4F0895BC01880F991F880F76
:10111000991F860F971F880F991F0895F894FFCF86
:101120000000AB048000009CA438D44870EC34A8C4
:10113000900CE07C44D868F4CC50BC2018845CC08F
:10114000F86488142CB0D04C74E80498A03CE4787F
:1011500040DC30AC9408B8241C806CF0C8548C106F
:1011600028B458C4FC603CA09804E8744CD008949F
:10117000AC30DC4078E454C8F06C801C24B860FCCF
:10118000C458B428108CEC7048D438A49C00D844BF
:101190007CE00C90A834841820BC50CCF468B02CAF
:1011A000148864F8C05C78E4DC40AC3008944CD01F
:1011B000E87498043CA0108CB428C45860FC24B88F
:1011C000801CF06C54C8A8340C907CE0D8449C007F
:1011D00038A448D4EC70C05C64F81488B02CF4686F
:1011E00050CC20BC841844D8E07C900C34A870EC1F
:1011F000D448A438009C2CB08814F8645CC01884CF
:10120000BC20CC5068F4940830AC40DCE478A03CBE
:10121000049874E8D04CFC6058C428B48C10C854AE
:101220006CF01C80B8245363616E6E696E67204950
:10123000324320627573202E2E2E00466F756E6429
:1012400020415474696E793835206174206164647A
:10125000726573733A200020283078005B324A00B0
:101260005B48004E696365626F74732049324320A6
:10127000436F6D6D616E64732054657374003D3D02
:101280003D3D3D3D3D3D3D3D3D3D3D3D3D3D3D3D8E
:101290003D3D3D3D3D3D3D3D00506C6561736520EC
:1012A00074797065206120636F6D6D616E642028B4
:1012B0002761272C202773272C20276427206F7273
:1012C00020276627293A005741524E494E47212090
:1012D000427974652076616C756573206D757374E1
:1012E000206265203020746F20323535202D3E205D
:1012F0005472756E636174696E6720746F20004567
:10130000535038323636202D2053656E64696E672F
:10131000204F70636F6465203E3E3E20002853548A
:10132000445042315F31290045535038323636201F
:101330002D203FEFBFBD3FEFBFBD3FEFBFBD2052F0
:101340005820424C4F434B53495A453A200045538D
:101350005038323636202D20436F6D6D616E64201B
:101360000020706172736564204F4B203C3C3C2030
:101370000045535038323636202D204572726F7238
:101380002070617273696E67200020636F6D6D61FC
:101390006E6421203C3C3C20002853544450423190
:1013A0005F30290045535038323636202D204F709B
:1013B000636F64652000285354414E4150423329E5
:1013C00000506C6561736520656E746572206120E4
:1013D00076616C75652066726F6D203020746F20A9
:1013E00032353520666F72207468697320636F6DC3
:1013F0006D616E643A2000436F6D6D616E642053C1
:1014000054414E41504233204F706572616E6420EA
:1014100056616C75652028646563696D616C293A55
:10142000200045535038323636202D2053656E64E7
:10143000696E67204F706572616E64203E3E3E208B
:1014400000280045535038323636202D204F706525
:1014500072616E6420002852454144414443322960
:101460000045535038323636202D20416E616C6F66
:101470006720446174613D0029203E3E3E207C206F
:101480004D53423D00207C204C53423D00207C20A7
:101490004352433D002A2A2A2A2A2A2A2A2A2A2A69
:1014A0002A2A2A2A2A2A2A2A2A2A2A2A2A0A002AE6
:1014B0002A2A2A2A2A20435243204F4B21202A2A13
:1014C0002A2A2A2A2A0A0023232323232323232305
:1014D00023232323232323232323232323232323DC
:1014E000230A00232323232320435243204552521F
:1014F0004F522023232323230A00455350383236EA
:1015000036202D20436F6D6D616E642027002720EB
:10151000756E6B6E6F776E202E2E2E000000000011
:10152000E707E807000000003F009706AF06E9075D
:0E153000EF07EC07F2070000000004080708B0
:00000001FF
